:10000000A0C0BAC0B9C0B8C0B7C0B6C0B5C0B4C04F
:10001000B3C0B2C0B1C0B0C0AFC0AEC0ADC0ACC064
:10002000ABC0AAC0A9C0A8C0A7C0A6C0A5C0A4C094
:10003000A3C0A2C06E616E00696E660000407A10B7
:10004000F35A00A0724E18090010A5D4E80000E889
:100050007648170000E40B54020000CA9A3B0000E7
:1000600000E1F505000080969800000040420F0076
:100070000000A08601000000102700000000E80337
:10008000000000006400000000000A000000000002
:100090000100000000002C76D888DC674F0823DFC1
:1000A000C1DFAE59E1B1B796E5E3E453C63AE65194
:1000B000997696E8E6C28426EB898C9B62ED407CBB
:1000C0006FFCEFBC9C9F40F2BAA56FA5F490055A57
:1000D0002AF75C936B6CF9676DC11BFCE0E40D477C
:1000E000FEF520E6B500D0ED902E0300943577059F
:1000F0000080841E080000204E0A000000C80C3357
:100100003333330F986E12831141EF8D2114893BE5
:10011000E65516CFFEE6DB18D1844B381BF77C1D65
:10012000901DA4BBE424203284725E228100C9F1B8
:1001300024ECA1E53D276364696E6F707375785890
:100140005B0011241FBECFEFD4E0DEBFCDBF11E0B6
:10015000A0E0B1E0EAE5FCE102C005900D92AE3B03
:10016000B107D9F721E0AEEBB1E001C01D92A43C8C
:10017000B207E1F702D06FCD43CFCF93DF93CDB776
:10018000DEB76E970FB6F894DEBF0FBECDBFFBD0C3
:1001900080E090E0AAEFB4E4898B9A8BAB8BBC8BA8
:1001A00020E030E04AE753E469897A898B899C89A9
:1001B0001CD8DC01CB018D8B9E8BAF8BB88F20E0E0
:1001C00030E040E85FE36D897E898F89988DBFD6E6
:1001D00088232CF481E090E09A8F898F3BC020E047
:1001E0003FEF4FE757E46D897E898F89988DF9D766
:1001F00018163CF520E030E040E251E469897A8944
:100200008B899C89F2D7DC01CB01BC01CD010BD7D6
:10021000DC01CB019A8F898F0FC089E190E09C8F20
:100220008B8F8B8D9C8D0197F1F79C8F8B8F898D98
:100230009A8D01979A8F898F898D9A8D009769F78A
:1002400013C06D897E898F89988DEDD6DC01CB0135
:100250009A8F898F898D9A8D9E8F8D8F8D8D9E8D92
:100260000197F1F79E8F8D8F8091C0019091C10110
:100270009A8389838091BE019091BF019C838B8377
:10028000AED084E290E02FEFFC012083F3D09E8378
:100290008D838D819E81181619065CF489819A815F
:1002A0009C0141E150E061E070E08EE091E03ED9D8
:1002B0000AC089819A819C0142E150E061E070E0CE
:1002C00080E291E033D985E290E02D81FC0120832A
:1002D00018861F82A6D098878F838F819885AA273A
:1002E00097FDA095BA2FBC01CD01CBD6DC01CB0187
:1002F0002DEC3CEC4CE85FE3BC01CD0176D7DC0192
:10030000CB0120E030E040E854E4BC01CD0123D62D
:10031000DC01CB0189879A87AB87BC8721EE3AE75E
:1003200044E95EE369857A858B859C85ABD5DC01E4
:10033000CB012FE632E143E85AE3BC01CD010BD6F5
:10034000DC01CB018D879E87AF87B88B88898F931F
:100350008F858F938E858F938D858F9383E391E027
:10036000892F8F9383E391E08F938A818F93898183
:100370008F938CD88DB79EB708960FB6F894DEBFD2
:100380000FBECDBFA5CFCF93DF93CDB7DEB785EC42
:1003900090E023E0FC01208384EC90E020E5FC0168
:1003A000208380EC90E022E0FC01208382EC90E04E
:1003B0002EE0FC01208381EC90E028E1FC01208309
:1003C00080E091E09093BF018093BE0180E091E0D6
:1003D0009093C1018093C001DF91CF910895CF9395
:1003E000DF93CDB7DEB78CE790E0FC0110828CE79D
:1003F00090E02CE730E0F9012081206CFC012083A3
:100400008CE790E02CE730E0F90120812860FC01C6
:1004100020838AE790E026E8FC012083DF91CF91DA
:100420000895CF93DF93CDB7DEB78AE790E02AE750
:1004300030E0F90120812064FC01208300008AE77C
:1004400090E0FC018081882F90E0807199270097CF
:10045000B1F38AE790E02AE730E0F90120812061DA
:10046000FC01208388E790E0FC0180819181DF918D
:10047000CF910895CF93DF9300D000D000D0CDB7B7
:10048000DEB78091C0019091C1019A8389838091E8
:10049000BE019091BF019C838B8389819A819C01CD
:1004A0004BE250E061E070E08EE391E03FD810C095
:1004B0008AE691E0892F8F938AE691E08F938C8171
:1004C0008F938B818F9323D80F900F900F900F9065
:1004D000CE010596292F2F938F938EE691E0892FD9
:1004E0008F938EE691E08F938C818F938B818F9386
:1004F0000ED80F900F900F900F900F900F908130AB
:100500009105B1F68D819E81292F2F938F9381E7DD
:1005100091E0892F8F9381E791E08F938A818F9368
:1005200089818F93B3D70F900F900F900F900F90FA
:100530000F908D819E818F3F910561F05CF08981E4
:100540009A819C0140E250E061E070E080E891E037
:10055000EDD712C08D819E8199235CF489819A81A7
:100560009C014BE150E061E070E081EA91E0DED770
:1005700003C08D819E8101C090CF26960FB6F8945E
:10058000DEBF0FBECDBFDF91CF910895CF93DF9334
:1005900000D01F92CDB7DEB789837B836A830000CA
:1005A00080EC90E0FC018081882F90E08072992798
:1005B0000097B1F386EC90E02981FC01208380E074
:1005C00090E00F900F900F90DF91CF910895CF930F
:1005D000DF9300D0CDB7DEB79A838983000080EC2B
:1005E00090E0FC0180818823D4F786EC90E0FC0148
:1005F0008081882F90E00F900F90DF91CF91089528
:10060000CF93DF93CDB7DEB764970FB6F894DEBF14
:100610000FBECDBF81E090E09E838D831A82198248
:100620008FC085E290E0FC0110821C821B827DC09D
:1006300080E090E0A8ECB2E48F839887A987BA871E
:1006400020E030E04AE753E46F81788589859A8518
:10065000CCD5DC01CB018B879C87AD87BE8720E0A2
:1006600030E040E85FE36B857C858D859E856FD4A7
:1006700088232CF481E090E0988B8F873BC020E0AA
:100680003FEF4FE757E46B857C858D859E85A9D527
:1006900018163CF520E030E040E251E46F817885A7
:1006A00089859A85A2D5DC01CB01BC01CD01BBD4E3
:1006B000DC01CB01988B8F870FC089E190E09A8B8A
:1006C000898B89899A890197F1F79A8B898B8F8514
:1006D00098890197988B8F878F859889009769F7FC
:1006E00013C06B857C858D859E859DD4DC01CB01F7
:1006F000988B8F878F8598899C8B8B8B8B899C8916
:100700000197F1F79C8B8B8B85E290E02D813E81E8
:100710000B8002C0220F331F0A94E2F7FC012083F2
:100720008B819C8101969C838B838B819C818830FB
:1007300091050CF47DCF89819A8101969A838983F2
:1007400089819A818A3091050CF46BCF64960FB63B
:10075000F894DEBF0FBECDBFDF91CF910895A3E126
:10076000B0E0E4EBF3E057C37C011B016A01FC013C
:1007700017821682838181FF49C3BE016F5F7F4F5D
:100780004B01F7019381F10193FD859193FF8191D5
:100790001F01882309F436C3853239F493FD85910E
:1007A00093FF81911F01853231F4B70190E07DD62E
:1007B00056016501E6CF10E0512C20E02032A0F474
:1007C0008B3269F030F4803259F0833269F4206161
:1007D0002CC08D3239F0803339F4216026C022607C
:1007E000246023C0286021C027FD27C030ED380FCA
:1007F0003A3078F426FF06C0FAE01F9F300D11242E
:10080000132F13C06AE0569E300D1124532E206220
:100810000CC08E3221F426FDF5C2206406C08C3651
:1008200011F4206802C0883641F4F10193FD8591EE
:1008300093FF81911F018111C1CF9BEB980F9330E2
:1008400018F42061805E06C09BE9980F933008F091
:100850009AC12F7E26FF16E02F73722E853621F463
:10086000F22FF0647F2E08C0863621F4622F606874
:10087000762E02C01111115077FE07C01C3348F4C8
:1008800044244394410E27E00BC0183030F4212F4C
:1008900006C027E04CE3442E03C027E017E0412CBC
:1008A000560174E0A70EB11CF6016081718182814E
:1008B0009381042DA401FCD46C01098100FF02C0C6
:1008C00003FF06C071FC07C072FC08C0612C08C0A1
:1008D0003DE2632E05C02BE2622E02C090E2692E3B
:1008E000802F8C7081F1662011F084E001C083E0DC
:1008F000851510F0512C0AC0581A73FC07C0B701B7
:1009000080E290E0D2D55A94D1F7F4CF662021F05E
:10091000B701862D90E0C9D503FD03C008E310E0C0
:1009200002C004E310E0F72DF0717F2EF8018491EE
:10093000882309F45EC271108052B70190E0B5D5EA
:100940000F5F1F4FF3CF77FE0FC04C0C04FF04C0A6
:100950008A81813309F44A94141474F5F8E0F4158B
:1009600078F588E0482E2CC076FC2AC0812F90E0D4
:100970008C159D059CF06CEFC6166FEFD60674F0D3
:10098000772D7068772E0AC0E2E0F0E0EC0FFD1FD3
:10099000E10FF11D8081803319F411501111F4CF52
:1009A00077FE0EC044244394410E812F90E0C81678
:1009B000D9062CF41C1904C04424439401C010E04F
:1009C00077FE07C01C141D043CF496012F5F3F4FB7
:1009D00005C025E030E002C021E030E0662011F0E3
:1009E0002F5F3F4F112331F0412F50E04F5F5F4F9A
:1009F000240F351F452D50E02417350714F4521AE3
:100A000001C0512C872D897041F4552031F0B70178
:100A100080E290E04AD55A94F8CF662021F0B701E1
:100A2000862D90E042D573FC08C0552031F0B70107
:100A300080E390E03AD55A94F8CF77FE5DC09C2DC4
:100A40008D2DD7FE02C090E080E0692E782E40E028
:100A500050E0C601841991099D878C87960126195B
:100A60003709280D391D812F90E0EE27FF27E81B5D
:100A7000F90BFF87EE87FFEF6F167F0661F4B70172
:100A80008EE290E02B8B3A8B488B598B0ED559898F
:100A900048893A892B89C614D70454F06C857D8522
:100AA000661577052CF4F901E40FF51F818101C06B
:100AB00080E371E0671A71084F5F5F4FEE85FF8535
:100AC0006E167F0664F0B70190E02B8B3A8B488B53
:100AD000598BEBD42B893A8948895989CCCF6C142E
:100AE0007D0439F49A81963318F4953311F404FF98
:100AF00081E3B70190E045C08A81813309F00F7E20
:100B0000B70190E0D2D4111105C074FE16C085E47F
:100B100090E015C0B7018EE290E0C7D482E0662471
:100B20006394680EF401E80FF11D8081B70190E035
:100B3000BCD4115051F3862DF2CF85E690E0B70179
:100B4000B4D4D7FC05C0C114D10439F404FF05C0E6
:100B5000D194C194D1088DE201C08BE2B70190E03D
:100B6000A4D480E36AE0C616D1042CF08F5FFAE0CB
:100B7000CF1AD108F7CFB70190E097D4B701C601DB
:100B8000C09693D436C1833631F0833779F08335FC
:100B900009F054C020C0560172E0A70EB11CF60146
:100BA0008081898301E010E0640113C05601F2E006
:100BB000AF0EB11CF601C080D18026FF03C0612FAB
:100BC00070E002C06FEF7FEFC6012B8B54D48C0115
:100BD0002B892F7714C05601F2E0AF0EB11CF6013D
:100BE000C080D18026FF03C0612F70E002C06FEF8C
:100BF0007FEFC6012B8B34D48C012B892068722E99
:100C000023FD18C0852D90E00817190798F4B70147
:100C100080E290E04AD45A94F5CFF60177FC8591B2
:100C200077FE81916F01B70190E03FD451105A9443
:100C3000015011090115110581F7DBC0843611F04F
:100C4000893649F5560127FF09C0F4E0AF0EB11C03
:100C5000F60160817181828193810AC0F2E0AF0E5A
:100C6000B11CF60160817181882777FD8095982FEE
:100C7000022F0F7697FF08C090958095709561952B
:100C80007F4F8F4F9F4F00682AE030E0A40180D44F
:100C9000C82EC8183DC0022F853721F40F7E2AE0E8
:100CA00030E01DC0097F8F3691F018F4883559F077
:100CB000A9C0803719F0883711F0A4C0006104FF83
:100CC00009C0046007C024FF08C0066006C028E011
:100CD00030E005C020E130E002C020E132E0560102
:100CE00007FF09C0F4E0AF0EB11CF601608171810D
:100CF0008281938108C0F2E0AF0EB11CF6016081E1
:100D0000718180E090E0A40143D4C82EC8180F7709
:100D100006FF0BC0202F2E7FC11650F404FF0AC01F
:100D200002FD08C0202F2E7E05C0DC2C202F03C022
:100D3000DC2C01C0D12E24FF0DC0FE01EC0DF11DF5
:100D40008081803311F4297E09C022FF06C0D3942C
:100D5000D39404C0822F867809F0D39423FD12C067
:100D600020FF06C01C2DD51418F4150D1D19D52C07
:100D7000D51460F4B70180E290E02B8B96D3D39426
:100D80002B89F6CFD51410F45D1801C0512C24FF27
:100D900011C0B70180E390E02B8B87D32B8922FF12
:100DA00016C021FF03C088E590E002C088E790E00C
:100DB000B7010CC0822F867851F021FD02C080E27D
:100DC00001C08BE227FD8DE2B70190E06ED3C11622
:100DD00030F4B70180E390E068D31150F8CFCA94A3
:100DE000F401EC0DF11D8081B70190E05ED3C110DC
:100DF000F6CF552009F4DDCCB70180E290E055D361
:100E00005A94F7CFF7018681978102C08FEF9FEF49
:100E10006396E2E11CC02F923F924F925F926F92D5
:100E20007F928F929F92AF92BF92CF92DF92EF927A
:100E3000FF920F931F93CF93DF93CDB7DEB7CA1BFB
:100E4000DB0B0FB6F894DEBF0FBECDBF09942A8826
:100E5000398848885F846E847D848C849B84AA84CE
:100E6000B984C884DF80EE80FD800C811B81AA815B
:100E7000B981CE0FD11D0FB6F894DEBF0FBECDBF26
:100E8000ED0108955058BB27AA270ED070C161D13B
:100E900030F066D120F031F49F3F11F41EF456C1BA
:100EA0000EF4E095E7FB4CC1E92F72D180F3BA173D
:100EB000620773078407950718F071F49EF58AC1DD
:100EC0000EF4E0950B2EBA2FA02D0B01B901900165
:100ED0000C01CA01A0011124FF27591B99F0593FA9
:100EE00050F4503E68F11A16F040A22F232F342FF1
:100EF0004427585FF3CF469537952795A795F0403F
:100F00005395C9F77EF41F16BA0B620B730B840B53
:100F1000BAF09150A1F0FF0FBB1F661F771F881F0B
:100F2000C2F70EC0BA0F621F731F841F48F4879563
:100F300077956795B795F7959E3F08F0B3CF939552
:100F4000880F08F09927EE0F979587950895D4D0CC
:100F500008F481E008950CD00AC102D140F0F9D024
:100F600030F021F45F3F19F0EBC0511134C1EEC0F5
:100F70000FD198F39923C9F35523B1F3951B550B62
:100F8000BB27AA2762177307840738F09F5F5F4F5C
:100F9000220F331F441FAA1FA9F333D00E2E3AF09D
:100FA000E0E830D091505040E695001CCAF729D0B7
:100FB000FE2F27D0660F771F881FBB1F2617370706
:100FC0004807AB07B0E809F0BB0B802DBF01FF2736
:100FD00093585F4F2AF09E3F510568F0B1C0FBC0A7
:100FE0005F3FECF3983EDCF3869577956795B79570
:100FF000F7959F5FC9F7880F911D9695879597F98B
:101000000895E1E0660F771F881FBB1F6217730703
:101010008407BA0720F0621B730B840BBA0BEE1F18
:1010200088F7E0950895BCD088F09F5790F0B92FCD
:101030009927B751A0F0D1F0660F771F881F991F2D
:101040001AF0BA95C9F712C0B13081F0C3D0B1E03F
:101050000895C0C0672F782F8827B85F39F0B93F4F
:10106000CCF3869577956795B395D9F73EF490952F
:101070008095709561957F4F8F4F9F4F0895E894AD
:1010800009C097FB3EF490958095709561957F4FD0
:101090008F4F9F4F9923A9F0F92F96E9BB2793957E
:1010A000F695879577956795B795F111F8CFFAF48E
:1010B000BB0F11F460FF1BC06F5F7F4F8F4F9F4FBF
:1010C00016C0882311F096E911C0772321F09EE81D
:1010D000872F762F05C0662371F096E8862F70E083
:1010E00060E02AF09A95660F771F881FDAF7880F5D
:1010F0009695879597F90895990F0008550FAA0BB3
:10110000E0E8FEEF16161706E807F907C0F012161A
:101110001306E407F50798F0621B730B840B950B1D
:1011200039F40A2661F0232B242B252B21F4089572
:101130000A2609F4A140A6958FEF811D811D08950F
:1011400097F99F6780E870E060E008959FEF80EC7A
:10115000089500240A94161617061806090608951D
:1011600000240A9412161306140605060895092E83
:101170000394000C11F4882352F0BB0F40F4BF2BF2
:1011800011F460FF04C06F5F7F4F8F4F9F4F089532
:1011900057FD9058440F551F59F05F3F71F0479528
:1011A000880F97FB991F61F09F3F79F0879508950D
:1011B000121613061406551FF2CF4695F1DF08C02C
:1011C000161617061806991FF1CF86957105610549
:1011D00008940895E894BB2766277727CB0197F9F1
:1011E00008958ADF08F48FEF08950BD0C0CFB1DFE8
:1011F00028F0B6DF18F0952309F0A2CFA7CF11246D
:10120000EACFC6DFA0F3959FD1F3950F50E0551FAD
:10121000629FF001729FBB27F00DB11D639FAA274B
:10122000F00DB11DAA1F649F6627B00DA11D661F9A
:10123000829F2227B00DA11D621F739FB00DA11DBB
:10124000621F839FA00D611D221F749F3327A00D75
:10125000611D231F849F600D211D822F762F6A2F11
:1012600011249F5750408AF0E1F088234AF0EE0F96
:10127000FF1FBB1F661F771F881F91505040A9F7A3
:101280009E3F510570F05CCFA6CF5F3FECF3983ED8
:10129000DCF3869577956795B795F795E7959F5F0A
:1012A000C1F7FE2B880F911D9695879597F90895A4
:1012B000283008F027E03327DA01990F311D87FD28
:1012C000916000966105710539F432602E5F3D939F
:1012D00030E32A95E1F708959F3F30F0803871059B
:1012E000610509F03C5F3C5F3D93913008F08068F8
:1012F000911DDF93CF931F930F93FF92EF92192FBE
:10130000987F9695E92F96959695E90FFF27EA56CF
:10131000FF4F99273327EE24FF24A701E70105900B
:101320000894079428F4360FE71EF81E491F511D34
:10133000660F771F881F991F0694A1F705900794E1
:1013400028F4E70EF81E491F561FC11D770F881F8E
:10135000991F661F0694A1F70590079428F4F80ECC
:10136000491F561FC71FD11D880F991F661F771F62
:101370000694A1F70590079420F4490F561FC71F44
:10138000D81F990F661F771F881F0694A9F78491AD
:101390001095177041F0D695C79557954795F794D6
:1013A000E7941A95C1F7ECE3F0E068941590159175
:1013B00035916591959105907FE27395E118F10A59
:1013C000430B560BC90BD009C0F7E10CF11E431FAC
:1013D000561FC91FD01D7EF4703311F48A95E6CFD5
:1013E000E894015030F0080F0AF40027021708F4BF
:1013F000202F2395022F7A3328F079E37D932A95C5
:10140000E9F710C07D932A9589F60694979567951C
:10141000379517951794E118F10A430B560BC90B32
:10142000D00998F023957E9173957A3308F070E394
:101430007C932013B8F77E9170617D9330F0839593
:1014400071E37D9370E32A95E1F71124EF90FF900B
:101450000F911F91CF91DF91992787FD9095089566
:10146000FC010590615070400110D8F7809590956F
:101470008E0F9F1F0895FC01615070400190011074
:10148000D8F7809590958E0F9F1F0895A0E0B0E04B
:10149000EBE4FAE0D0CCAE01475F5F4F6F81788517
:1014A0008D819E815CD9E2E0E2CC0F931F93CF93B4
:1014B000DF93182F092FEB018B8181FD03C08FEF84
:1014C0009FEF20C082FF10C04E815F812C813D8143
:1014D000421753077CF4E881F9819F012F5F3F4F4A
:1014E00039832883108306C0E885F985812F099503
:1014F000892B29F72E813F812F5F3F4F3F832E831A
:10150000812F902FDF91CF911F910F910895A0E02F
:10151000B0E0ECE8FAE08FCCAE01475F5F4F6F813F
:1015200078858D819E8101D2E2E0A1CCA0E0B0E07F
:10153000EBE9FAE076CC6B014A017901D901139607
:101540002C9121FF1DC0C0E0D0E0C815D905D9F00D
:101550008C015C01AC0CBD1CC8010A151B0571F0A7
:101560000F5F1F4FD7011896ED91FC911997B701A6
:10157000DC018C910995892B79F305C02196E5CF83
:1015800080E090E001C0CE01CDB7DEB7ECE065CCE5
:10159000FA01AA27283051F1203181F1E8946F93A4
:1015A0006E7F6E5F7F4F8F4F9F4FAF4FB1E03ED04A
:1015B000B4E03CD0670F781F891F9A1FA11D680FE8
:1015C000791F8A1F911DA11D6A0F711D811D911D1B
:1015D000A11D20D009F468943F912AE0269F112490
:1015E0003019305D3193DEF6CF010895462F4770F4
:1015F000405D4193B3E00FD0C9F7F6CF462F4F704F
:10160000405D4A3318F0495D31FD4052419302D0AC
:10161000A9F7EACFB4E0A695979587957795679552
:10162000BA95C9F700976105710508959B01AC0152
:101630000A2E06945795479537952795BA95C9F779
:10164000620F731F841F951FA01D089520FD09C000
:10165000FC0123FD05C022FF02C073836283518316
:101660004083089544FD10C046FD10C0DB01FC011D
:10167000AA0FBB1FEE1FFF1F1094D1F76A0F7B1F2D
:101680008E1F9F1F31E003C033E001C034E0660FBE
:10169000771F881F991F3150D1F7620F711D811D6F
:1016A000911D08950F931F93CF93DF938C01C80171
:1016B00078D2EC0197FD06C061D2892BC1F7B80141
:1016C000CE01ADD2CE01DF91CF911F910F91089540
:1016D0008F929F92AF92CF92DF92EF92FF920F93F1
:1016E0001F93CF93DF93EC01A62E4A01022F59D20C
:1016F000AC0155274B32510521F04D32510549F4CB
:101700000068AA9411F480E060C0CE014AD297FD2F
:10171000FACF102F1D7F302F3073F1F48033E1F4B6
:10172000FF24FA94FA0C09F43DC0CE013AD297FD99
:1017300039C0382F3F7D383549F41264AA94AA94F1
:1017400089F1CE012ED297FF07C02CC006FF02C040
:10175000126001C01261AF2CC12CD12C760120ED9A
:10176000280F283078F014FF03C0BE0158D217C0EC
:101770002A3040F016FFF9CF2F7D3FEE320F363082
:10178000A0F72750412FC701B6016CDF6B017C0128
:101790001260AA9451F0CE0104D297FFE0CF11FD60
:1017A00004C0B1CFC12CD12C760117FF08C0F09432
:1017B000E094D094C094C11CD11CE11CF11C212FD9
:1017C000B701A601C40142DF81E0DF91CF911F91F3
:1017D0000F91FF90EF90DF90CF90AF909F908F9000
:1017E0000895A1E2B0E0E6EFFBE01ACB5C017A01DC
:1017F0008E010F5F1F4F680180E2D8011D928A950C
:10180000E9F7F501738040E050E0812CB0E0912CC5
:1018100081E090E0F90173FCA59173FEA1918F0125
:101820007A2F9F01A11103C080E090E07BC0AE350C
:1018300019F44115510559F1E92DF0E0E417F507C8
:101840003CF4AD3569F1AD3219F4BB2319F103C095
:10185000B11101C08A2EE72FE695E695E69586013F
:101860000E0F111DF801A72FA7708C0102C0000FE9
:10187000111FAA95E2F7D801B081BA2BB083781571
:1018800059F0781510F47F5FE6CF7150E4CF9924BA
:10189000939403C0B1E001C0B0E04F5F5F4FBACF97
:1018A000BB2319F08E8180628E83911003C099242E
:1018B000939415C0F601CE01819620812095219345
:1018C000E817F907D1F7F3CFE114F10429F0D701B4
:1018D0008C93F70131967F016150F1F0912CC50195
:1018E00069A35FD169A197FD15C0282F269526957C
:1018F0002695F601E20FF11D208130E0AC01477022
:10190000552702C0359527954A95E2F720FDDCCF93
:10191000B50185D1911088CFE114F10411F0D70100
:101920001C92C801A196EDE097CA4F925F927F92F8
:101930008F929F92AF92BF92CF92DF92EF92FF92DF
:101940000F931F93CF93DF931F92CDB7DEB78C0118
:101950002B017A01FC0117821682A12CF801D38099
:10196000F201D3FC8591D3FE8191382F2F0188237A
:1019700009F4EEC090E0398301D13981892B19F047
:10198000C80190DEEBCF353241F4F201D3FC359142
:10199000D3FE31912F01353259F4C801398301D179
:1019A000398197FDD3C03817C9F2B80138D1D0C0FA
:1019B0003A3241F4D3FC3591D3FE31912F01BB244F
:1019C000B39401C0B12C712C20ED230F2A3088F480
:1019D000FB2DF260BF2E672D70E080E090E040E2CA
:1019E00041DE762EF201D3FC3591D3FE31912F01E9
:1019F000EBCFB1FE03C0711003C0AAC077247A9464
:101A0000383619F03C3661F014C0F201D3FC359140
:101A1000D3FE31912F01383661F4FB2DF860BF2ED3
:101A20008B2D8460B82EF201D3FC3591D3FE319119
:101A30002F01332309F48CC0632F70E086E391E01B
:101A40003983A4D03981892B09F482C0B0FC07C046
:101A5000F701C080D180C70102967C0102C0C12C71
:101A6000D12C3E3649F4F8014681578160E070E0A0
:101A70002B2DC601EBDD72CF333699F4B1FC02C0D9
:101A800077247394C8018DD097FD60C0C114D10430
:101A900029F0F6018083C60101966C017A9491F7D2
:101AA00051C03B3551F49201A601672DC80199DE62
:101AB0002C01009709F046C040C0C8013983F2DD0F
:101AC000398197FD43C03F3651F128F4343619F17E
:101AD000393661F128C0333769F03537E1F023C07A
:101AE000C114D10429F0F6018082C60101966C016F
:101AF0007A9459F0C80155D04C0197FD06C03ED0EC
:101B0000892B71F3B801C4018AD0C114D104D1F07A
:101B1000F601108217C0FB2DF062BF2E07C08B2D7F
:101B20008061B82E03C09B2D9064B92E2B2DA60189
:101B3000672DC801CDDD811105C0F8018381807357
:101B400029F406C0B0FC0ACFA39408CFAA2019F04C
:101B50008A2D90E002C08FEF9FEF0F90DF91CF9121
:101B60001F910F91FF90EF90DF90CF90BF90AF90BB
:101B70009F908F907F905F904F900895911168C0D3
:101B8000803219F089508550D0F70895FC010590F6
:101B9000061621F00020D9F7C00108953197CF0132
:101BA0000895CF93DF93EC012B8120FF33C026FFF4
:101BB0000AC02F7B2B838E819F8101969F838E830A
:101BC0008A8190E029C022FF0FC0E881F9818081DD
:101BD000992787FD9095009719F420622B831AC0EE
:101BE0003196F983E8830EC0EA85FB85099597FF56
:101BF00009C02B81019611F480E101C080E2822BA3
:101C00008B8308C02E813F812F5F3F4F3F832E8300
:101C1000992702C08FEF9FEFDF91CF910895FB01CD
:101C2000238120FF12C026FD10C08F3F3FEF930796
:101C300061F082832F7D20642383268137812150A8
:101C4000310937832683992708958FEF9FEF0895F1
:0A1C5000992788270895F894FFCF24
:101C5A000000000300000000C602E70200005475FD
:101C6A00726E696E67206F6E204C454473210A00BC
:101C7A005475726E696E67206F6666204C454473B0
:101C8A00210A0054656D70203D2025660A00506CBB
:101C9A006561736520656E74657220616E20696E78
:101CAA007465676572206265747765656E20302099
:101CBA00616E64203235353A2000252A7300256486
:101CCA00000A496E7075742069733A2025640A0007
:101CDA00456E74657265642076616C7565206772FD
:101CEA006561746572207468616E20323535210A27
:101CFA0000456E74657265642076616C7565206C4A
:0E1D0A00657373207468616E2030210A00003A
:00000001FF
