:1000000019C020C01FC01EC01DC01CC01BC01AC00C
:1000100019C018C017C016C015C014C013C012C034
:1000200011C010C00FC00EC00DC00CC00BC00AC064
:1000300009C008C011241FBECFEFD4E0DEBFCDBF82
:1000400002D06DC0DDCFCF93DF93CDB7DEB702D046
:1000500036D0FFCFCF93DF931F92CDB7DEB781E0CD
:1000600090E055D089838981882319F08981813076
:1000700011F58981882379F480E090E048D0898364
:1000800086E690E026E630E0F90130812981230FF1
:10009000FC01208310C080E090E039D0898386E69F
:1000A00090E026E630E0F90130812981F32FF21B40
:1000B0002F2FFC0120830F90DF91CF910895CF93D4
:1000C000DF93CDB7DEB784E290E024E230E0F901BF
:1000D00020812260FC01208388E890E02FE13EE44B
:1000E000FC013183208386E890E02FE33CE9FC01AA
:1000F0003183208380E890E020E8FC01208381E8C0
:1001000090E021E1FC012083DF91CF910895F999DE
:10011000FECF92BD81BDF89A992780B50895F894D5
:02012000FFCF0F
:00000001FF
