:100000001FC039C038C037C036C035C034C033C057
:1000100032C031C030C02FC02EC02DC02CC02BC06C
:100020002AC029C028C027C026C025C024C023C09C
:1000300022C021C06364696E6F70737578585B006D
:1000400011241FBECFEFD4E0DEBFCDBF12E0A0E091
:10005000B1E0EEE6F5E102C005900D92AE34B107D5
:10006000D9F722E0AEE4B2E001C01D92A435B20798
:10007000E1F702D07ACAC4CFCF93DF93CDB7DEB712
:10008000A4970FB6F894DEBF0FBECDBF75D180E048
:1000900090E0AAEFB4E489879A87AB87BC8720E019
:1000A00030E04AE753E469857A858B859C852AD3BD
:1000B000DC01CB018D879E87AF87B88B20E030E0D5
:1000C00040E85FE36D857E858F8598899AD2882385
:1000D0002CF481E090E09A8B898B3BC020E03FEFCD
:1000E0004FE757E46D857E858F85988907D318166D
:1000F0003CF520E030E040E251E469857A858B856B
:100100009C8500D3DC01CB01BC01CD017ED2DC019A
:10011000CB019A8B898B0FC089E190E09C8B8B8BF4
:100120008B899C890197F1F79C8B8B8B89899A89A4
:1001300001979A8B898B89899A89009769F713C0EF
:100140006D857E858F85988960D2DC01CB019A8B85
:10015000898B89899A899E8B8D8B8D899E89019740
:10016000F1F79E8B8D8B80915002909151029A8372
:10017000898380914E0290914F029C838B8382ED04
:1001800094E09E838D8389819A819C0148E350E0AD
:1001900061E070E082E191E0B7D38ED098878F83E1
:1001A0002F8138858D819E812817390709F077C006
:1001B00089819A819C0143E150E061E070E08BE429
:1001C00091E0A2D380E090E0AAEFB4E48F8B988F07
:1001D000A98FBA8F20E030E04AE753E46F89788D29
:1001E000898D9A8D8FD2DC01CB018B8F9C8FAD8F47
:1001F000BE8F20E030E040E85FE36B8D7C8D8D8D1D
:100200009E8DFFD188232CF481E090E098A38F8FFE
:100210003BC020E03FEF4FE757E46B8D7C8D8D8D29
:100220009E8D6CD218163CF520E030E040E251E49F
:100230006F89788D898D9A8D65D2DC01CB01BC01E7
:10024000CD01E3D1DC01CB0198A38F8F0FC089E1F1
:1002500090E09AA389A389A19AA10197F1F79AA3A3
:1002600089A38F8D98A1019798A38F8F8F8D98A1C7
:10027000009769F71FC06B8D7C8D8D8D9E8DC5D1CC
:10028000DC01CB0198A38F8F8F8D98A19CA38BA3AA
:100290008BA19CA10197F1F79CA38BA30BC0898133
:1002A0009A819C0145E150E061E070E08FE591E0CA
:1002B0002BD373CF8DD0FECFCF93DF9300D000D060
:1002C00000D0CDB7DEB780915002909151029A8351
:1002D000898380914E0290914F029C838B8310C042
:1002E00085E791E0892F8F9385E791E08F938C814B
:1002F0008F938B818F93F9D20F900F900F900F9067
:10030000CE010596292F2F938F9389E791E0892FAE
:100310008F9389E791E08F938C818F938B818F935B
:10032000E4D20F900F900F900F900F900F908130AC
:100330009105B1F68D819E81292F2F938F938CE7A4
:1003400091E0892F8F938CE791E08F938A818F932F
:1003500089818F93BBD20F900F900F900F900F90C9
:100360000F908D819E8126960FB6F894DEBF0FBE4A
:10037000CDBFDF91CF910895CF93DF93CDB7DEB797
:1003800085EC90E023E0FC01208384EC90E020E504
:10039000FC01208380EC90E022E0FC01208382ECD1
:1003A00090E02EE0FC01208381EC90E028E1FC014C
:1003B000208380E091E090934F0280934E0280E092
:1003C00091E09093510280935002DF91CF91089574
:1003D000CF93DF93CDB7DEB72A970FB6F894DEBF81
:1003E0000FBECDBF64D220E137E2B901E3D09A83DA
:1003F000898380915002909151029C838B838091DC
:100400004E0290914F029E838D838B819C819C0133
:1004100048E250E061E070E083E991E075D28B81C1
:100420009C819C0144E350E061E070E08CEB91E042
:100430006BD289819A81019698878F8370C010C092
:1004400085E791E0892F8F9385E791E08F938E81E7
:100450008F938D818F9349D20F900F900F900F90B3
:10046000CE010796292F2F938F9389E791E0892F4B
:100470008F9389E791E08F938E818F938D818F93F6
:1004800034D20F900F900F900F900F900F908130FB
:100490009105B1F68F819885292F2F938F9381EF46
:1004A00091E0892F8F9381EF91E08F938C818F93CF
:1004B0008B818F930BD20F900F900F900F900F9016
:1004C0000F902F81388589819A81281739075CF42C
:1004D0008B819C819C0144E150E061E070E08DEFF4
:1004E00091E012D21CC02F81388589819A818217B0
:1004F00093075CF48B819C819C0145E150E061E0B5
:1005000070E082E192E000D20AC08B819C819C0164
:1005100044E250E061E070E088E292E0F5D12F81A2
:10052000388589819A812817390709F088CF2A965A
:100530000FB6F894DEBF0FBECDBFDF91CF91089507
:10054000CF93DF9300D01F92CDB7DEB789837B8333
:100550006A83000080EC90E0FC018081882F90E0AD
:10056000807299270097B1F386EC90E02981FC0115
:10057000208380E090E00F900F900F90DF91CF915B
:100580000895CF93DF9300D0CDB7DEB79A838983E8
:10059000000080EC90E0FC0180818823D4F786EC99
:1005A00090E0FC018081882F90E00F900F90DF9108
:1005B000CF91089597FB072E16F4009406D077FD8F
:1005C00008D00BD007FC05D03EF4909581959F4F45
:1005D0000895709561957F4F0895AA1BBB1B51E14B
:1005E00007C0AA1FBB1FA617B70710F0A61BB70BA3
:1005F000881F991F5A95A9F780959095BC01CD0148
:1006000008952FD008F481E0089557D088F09F57BF
:1006100090F0B92F9927B751A0F0D1F0660F771F4E
:10062000881F991F1AF0BA95C9F712C0B13081F02E
:100630005ED0B1E008955BC0672F782F8827B85F40
:1006400039F0B93FCCF3869577956795B395D9F78F
:100650003EF490958095709561957F4F8F4F9F4F99
:100660000895990F0008550FAA0BE0E8FEEF161643
:100670001706E807F907C0F012161306E407F50796
:1006800098F0621B730B840B950B39F40A2661F00A
:10069000232B242B252B21F408950A2609F4A140AD
:1006A000A6958FEF811D811D089557FD9058440F29
:1006B000551F59F05F3F71F04795880F97FB991FC1
:1006C00061F09F3F79F0879508951216130614067E
:1006D000551FF2CF4695F1DF08C01616170618060B
:1006E000991FF1CF86957105610508940895E894E6
:1006F000BB2766277727CB0197F90895B2DF08F467
:100700008FEF08950BD078C069D028F06ED018F024
:10071000952309F05AC05FC01124EACFC6DFA0F3C9
:10072000959FD1F3950F50E0551F629FF001729F86
:10073000BB27F00DB11D639FAA27F00DB11DAA1FA5
:10074000649F6627B00DA11D661F829F2227B00DF2
:10075000A11D621F739FB00DA11D621F839FA00D7D
:10076000611D221F749F3327A00D611D231F849FCD
:10077000600D211D822F762F6A2F11249F57504024
:100780008AF0E1F088234AF0EE0FFF1FBB1F661FBF
:10079000771F881F91505040A9F79E3F510570F078
:1007A00014C0A6CF5F3FECF3983EDCF386957795B7
:1007B0006795B795F795E7959F5FC1F7FE2B880F73
:1007C000911D9695879597F9089597F99F6780E809
:1007D00070E060E008959FEF80EC089500240A9493
:1007E0001616170618060906089500240A9412160C
:1007F0001306140605060895092E0394000C11F43F
:10080000882352F0BB0F40F4BF2B11F460FF04C0EB
:100810006F5F7F4F8F4F9F4F08958F929F92AF9240
:10082000BF92CF92DF92EF92FF92CF93DF93EC01D2
:10083000688179818A819B816115710581059105A6
:1008400021F464E279ED8BE597E02DE133EF41E0AF
:1008500050E0FAD549015A019B01AC01A7EAB1E485
:100860000FD66B017C01ACEEB4EFA501940114D658
:10087000C60ED71EE81EF91EF7FE06C081E0C81A94
:10088000D108E10880E8F80AC882D982EA82FB82AE
:10089000C6019F77DF91CF91FF90EF90DF90CF90CF
:1008A000BF90AF909F908F900895B7DF08958EE02E
:1008B00091E0B3DF0895A0E0B0E080930E01909343
:1008C0000F01A0931001B09311010895A0E0B0E0D2
:1008D000EBE6F4E0F5C5AE01475F5F4F6F817885C9
:1008E0008D819E8143D0E2E007C6A0E0B0E0EAE758
:1008F000F4E0E6C5AE01475F5F4F6F8178858D817B
:100900009E8166D3E2E0F8C5A0E0B0E0E9E8F4E05B
:10091000CDC56B014A017901D90113962C9121FFB4
:100920001DC0C0E0D0E0C815D905D9F08C015C012C
:10093000AC0CBD1CC8010A151B0571F00F5F1F4FE1
:10094000D7011896ED91FC911997B701DC018C91B4
:100950000995892B79F305C02196E5CF80E090E0D9
:1009600001C0CE01CDB7DEB7ECE0BCC5ACE0B0E075
:10097000EBEBF4E095C57C016B018A01FC01178269
:100980001682838181FFB0C1CE0101964C01F7012F
:100990009381F60193FD859193FF81916F018823E7
:1009A00009F49EC1853239F493FD859193FF8191BD
:1009B0006F01853221F4B70190E09AD4E8CF512C31
:1009C000312C20E02032A0F48B3269F030F48032F8
:1009D00059F0833269F420612CC08D3239F08033B4
:1009E00039F4216026C02260246023C0286021C021
:1009F00027FD27C030ED380F3A3078F426FF06C0C7
:100A0000FAE05F9E300D1124532E13C08AE0389E09
:100A1000300D1124332E20620CC08E3221F426FDBD
:100A20005FC1206406C08C3611F4206802C088368D
:100A300041F4F60193FD859193FF81916F0181113E
:100A4000C1CF982F9F7D9554933028F40C5F1F4F92
:100A5000FFE3F9830DC0833631F0833771F08335BE
:100A600009F057C021C0F801808189830E5F1F4FB4
:100A700044244394512C540114C03801F2E06F0E09
:100A8000711CF801A080B18026FF03C0652D70E0C5
:100A900002C06FEF7FEFC5012C87E1D32C018301EA
:100AA0002C852F77222E16C03801F2E06F0E711CB4
:100AB000F801A080B18026FF03C0652D70E002C060
:100AC0006FEF7FEFC5012C87BFD32C012C852068E9
:100AD000222E830123FC19C0832D90E0481659066D
:100AE000A0F4B70180E290E003D43A94F5CFF50189
:100AF00027FC859127FE81915F01B70190E0F8D333
:100B000031103A94F1E04F1A51084114510479F729
:100B1000DEC0843611F0893631F5F80127FF07C0B1
:100B200060817181828193810C5F1F4F08C0608159
:100B30007181882777FD8095982F0E5F1F4F2F7644
:100B4000B22E97FF09C090958095709561957F4F63
:100B50008F4F9F4F2068B22E2AE030E0A40113D4BB
:100B6000A82EA81843C0853729F42F7EB22E2AE07C
:100B700030E025C0F22FF97FBF2E8F36C1F018F478
:100B8000883579F0ADC0803719F0883721F0A8C0DA
:100B90002F2F2061B22EB4FE0DC08B2D8460B82E95
:100BA00009C024FF0AC09F2F9660B92E06C028E016
:100BB00030E005C020E130E002C020E132E0F80181
:100BC000B7FE07C060817181828193810C5F1F4FE6
:100BD00006C06081718180E090E00E5F1F4FA4012C
:100BE000D2D3A82EA818FB2DFF77BF2EB6FE0BC0C0
:100BF0002B2D2E7FA51450F4B4FE0AC0B2FC08C001
:100C00002B2D2E7E05C07A2C2B2D03C07A2C01C0F3
:100C1000752C24FF0DC0FE01EA0DF11D808180338B
:100C200011F4297E09C022FF06C07394739404C096
:100C3000822F867809F0739423FD12C020FF06C02E
:100C40005A2C731418F4530C5718732C731460F443
:100C5000B70180E290E02C874BD373942C85F6CFBC
:100C6000731410F4371801C0312C24FF11C0B701E0
:100C700080E390E02C873CD32C8522FF16C021FF17
:100C800003C088E590E002C088E790E0B7010CC09F
:100C9000822F867851F021FD02C080E201C08BE2F4
:100CA00027FD8DE2B70190E023D3A51430F4B701FE
:100CB00080E390E01DD35A94F8CFAA94F401EA0D92
:100CC000F11D8081B70190E013D3A110F6CF33203E
:100CD00009F45DCEB70180E290E00AD33A94F7CFF1
:100CE000F7018681978102C08FEF9FEF2C96E2E19A
:100CF000F3C320FD09C0FC0123FD05C022FF02C093
:100D00007383628351834083089544FD10C046FD80
:100D100010C0DB01FC01AA0FBB1FEE1FFF1F1094C8
:100D2000D1F76A0F7B1F8E1F9F1F31E003C033E096
:100D300001C034E0660F771F881F991F3150D1F72B
:100D4000620F711D811D911D08950F931F93CF9305
:100D5000DF938C01C8018ED2EC0197FD06C061D2F1
:100D6000892BC1F7B801CE01F5D2CE01DF91CF9129
:100D70001F910F9108958F929F92AF92CF92DF9221
:100D8000EF92FF920F931F93CF93DF93EC01A62E68
:100D90004A01022F6FD2AC0155274B32510521F089
:100DA0004D32510549F40068AA9411F480E060C006
:100DB000CE0160D297FDFACF102F1D7F302F3073F8
:100DC000F1F48033E1F4FF24FA94FA0C09F43DC005
:100DD000CE0150D297FD39C0382F3F7D383549F4C8
:100DE0001264AA94AA9489F1CE0144D297FF07C055
:100DF0002CC006FF02C0126001C01261AF2CC12CD2
:100E0000D12C760120ED280F283078F014FF03C094
:100E1000BE01A0D217C02A3040F016FFF9CF2F7DB7
:100E20003FEE320F3630A0F72750412FC701B601F1
:100E30006CDF6B017C011260AA9451F0CE011AD2D2
:100E400097FFE0CF11FD04C0B1CFC12CD12C7601AA
:100E500017FF08C0F094E094D094C094C11CD11C3A
:100E6000E11CF11C212FB701A601C40142DF81E082
:100E7000DF91CF911F910F91FF90EF90DF90CF9076
:100E8000AF909F908F900895A1E2B0E0E9E4F7E081
:100E90000CC35C017A018E010F5F1F4F680180E275
:100EA000D8011D928A95E9F7F501738040E050E082
:100EB000812CB0E0912C81E090E0F90173FCA591C8
:100EC00073FEA1918F017A2F9F01A11103C080E0D1
:100ED00090E07BC0AE3519F44115510559F1E92D6B
:100EE000F0E0E417F5073CF4AD3569F1AD3219F4E3
:100EF000BB2319F103C0B11101C08A2EE72FE6957B
:100F0000E695E69586010E0F111DF801A72FA77033
:100F10008C0102C0000F111FAA95E2F7D801B08121
:100F2000BA2BB083781559F0781510F47F5FE6CFAF
:100F30007150E4CF9924939403C0B1E001C0B0E0B4
:100F40004F5F5F4FBACFBB2319F08E8180628E83D3
:100F5000911003C09924939415C0F601CE01819697
:100F6000208120952193E817F907D1F7F3CFE114F9
:100F7000F10429F0D7018C93F70131967F0161507C
:100F8000F1F0912CC50169A375D169A197FD15C038
:100F9000282F269526952695F601E20FF11D208132
:100FA00030E0AC014770552702C0359527954A952A
:100FB000E2F720FDDCCFB501CDD1911088CFE1144F
:100FC000F10411F0D7011C92C801A196EDE089C28D
:100FD0004F925F927F928F929F92AF92BF92CF92E9
:100FE000DF92EF92FF920F931F93CF93DF931F92A5
:100FF000CDB7DEB78C012B017A01FC011782168276
:10100000A12CF801D380F201D3FC8591D3FE81910C
:10101000382F2F01882309F4EEC090E0398301D1E5
:101020003981892B19F0C80190DEEBCF353241F4BC
:10103000F201D3FC3591D3FE31912F01353259F4B1
:10104000C801398317D1398197FDD3C03817C9F248
:10105000B80180D1D0C03A3241F4D3FC3591D3FEEF
:1010600031912F01BB24B39401C0B12C712C20ED20
:10107000230F2A3088F4FB2DF260BF2E672D70E01D
:1010800080E090E040E241DE762EF201D3FC359123
:10109000D3FE31912F01EBCFB1FE03C0711003C01D
:1010A000AAC077247A94383619F03C3661F014C01F
:1010B000F201D3FC3591D3FE31912F01383661F422
:1010C000FB2DF860BF2E8B2D8460B82EF201D3FC6F
:1010D0003591D3FE31912F01332309F48CC0632F56
:1010E00070E084E390E03983A4D03981892B09F43E
:1010F00082C0B0FC07C0F701C080D180C701029652
:101100007C0102C0C12CD12C3E3649F4F801468145
:10111000578160E070E02B2DC601EBDD72CF3336D6
:1011200099F4B1FC02C077247394C801A3D097FD51
:1011300060C0C114D10429F0F6018083C601019674
:101140006C017A9491F751C03B3551F49201A6019C
:10115000672DC80199DE2C01009709F046C040C0F8
:10116000C8013983F2DD398197FD43C03F3651F123
:1011700028F4343619F1393661F128C0333769F073
:101180003537E1F023C0C114D10429F0F601808283
:10119000C60101966C017A9459F0C8016BD04C01DC
:1011A00097FD06C03ED0892B71F3B801C401D2D09F
:1011B000C114D104D1F0F601108217C0FB2DF062EA
:1011C000BF2E07C08B2D8061B82E03C09B2D90646D
:1011D000B92E2B2DA601672DC801CDDD811105C0CB
:1011E000F8018381807329F406C0B0FC0ACFA39470
:1011F00008CFAA2019F08A2D90E002C08FEF9FEF50
:101200000F90DF91CF911F910F91FF90EF90DF90A2
:10121000CF90BF90AF909F908F907F905F904F90B6
:10122000089591110EC1803219F089508550D0F780
:101230000895FC010590061621F00020D9F7C001A1
:1012400008953197CF010895FC01059061507040D9
:101250000110D8F7809590958E0F9F1F0895FC017F
:101260006150704001900110D8F7809590958E0FD5
:101270009F1F0895CF93DF93EC012B8120FF33C094
:1012800026FF0AC02F7B2B838E819F8101969F832F
:101290008E838A8190E029C022FF0FC0E881F98106
:1012A0008081992787FD9095009719F420622B8300
:1012B0001AC03196F983E8830EC0EA85FB8509954B
:1012C00097FF09C02B81019611F480E101C080E2F3
:1012D000822B8B8308C02E813F812F5F3F4F3F833E
:1012E0002E83992702C08FEF9FEFDF91CF91089552
:1012F0000F931F93CF93DF93182F092FEB018B814F
:1013000081FD03C08FEF9FEF20C082FF10C04E8190
:101310005F812C813D81421753077CF4E881F9817C
:101320009F012F5F3F4F39832883108306C0E885D4
:10133000F985812F0995892B29F72E813F812F5F10
:101340003F4F3F832E83812F902FDF91CF911F91AD
:101350000F910895FB01238120FF12C026FD10C0CC
:101360008F3F3FEF930761F082832F7D20642383BB
:1013700026813781215031093783268399270895A3
:101380008FEF9FEF0895FA01AA27283051F12031FD
:1013900081F1E8946F936E7F6E5F7F4F8F4F9F4F09
:1013A000AF4FB1E03ED0B4E03CD0670F781F891F4B
:1013B0009A1FA11D680F791F8A1F911DA11D6A0F19
:1013C000711D811D911DA11D20D009F468943F91CC
:1013D0002AE0269F11243019305D3193DEF6CF01CB
:1013E0000895462F4770405D4193B3E00FD0C9F791
:1013F000F6CF462F4F70405D4A3318F0495D31FDFE
:101400004052419302D0A9F7EACFB4E0A695979550
:10141000879577956795BA95C9F700976105710526
:1014200008959B01AC010A2E069457954795379570
:101430002795BA95C9F7620F731F841F951FA01DCA
:101440000895992788270895052E97FB16F4009490
:101450000FD057FD05D05BD007FC02D046F408C082
:1014600050954095309521953F4F4F4F5F4F0895D0
:1014700090958095709561957F4F8F4F9F4F089500
:1014800068D0A59F900DB49F900DA49F800D911DD5
:1014900011240895B7FFF4CFF3DF821B930B089557
:1014A0002F923F924F925F926F927F928F929F9274
:1014B000AF92BF92CF92DF92EF92FF920F931F9362
:1014C000CF93DF93CDB7DEB7CA1BDB0B0FB6F89413
:1014D000DEBF0FBECDBF09942A88398848885F8453
:1014E0006E847D848C849B84AA84B984C884DF80C4
:1014F000EE80FD800C811B81AA81B981CE0FD11DA8
:101500000FB6F894DEBF0FBECDBFED010895A1E286
:101510001A2EAA1BBB1BFD010DC0AA1FBB1FEE1F6D
:10152000FF1FA217B307E407F50720F0A21BB30BB8
:10153000E40BF50B661F771F881F991F1A9469F734
:1015400060957095809590959B01AC01BD01CF0190
:101550000895A29FB001B39FC001A39F01D0B29F85
:0E156000700D811D1124911D0895F894FFCF88
:10156E000000000300000000A002C1020000010004
:10157E000000506C6561736520656E746572203471
:10158E002D64696769742070617373776F7264205C
:10159E00746F20756E6C6F636B20486967682D4C95
:1015AE006F772047616D653A0D0A00436F72726561
:1015BE0063742050617373776F7264210D0A004952
:1015CE004E434F52524543542050415353574F525E
:1015DE0044210D0A00252A7300256400456E7465AA
:1015EE007265642050617373776F72643A2025645C
:1015FE000D0A0057656C636F6D6520746F207468FB
:10160E006520686967682D6C6F77206775657373E1
:10161E00696E672067616D65210D0A00506C65610A
:10162E00736520656E74657220696E746567657288
:10163E002067756573736573206265747765656E73
:10164E00203020616E642031303030303A200D0A67
:10165E000047756573733A2025640D0A00546F6F49
:10166E00206C6F772C2074727920616761696E0D22
:10167E000A00546F6F20486967682C2074727920B5
:10168E00616761696E0D0A00436F6E6772617475F2
:10169E006C6174696F6E732120596F7520676F745A
:0E16AE00206974207269676874210D0A0000BB
:00000001FF
