:100000001FC039C038C037C036C035C034C033C057
:1000100032C031C030C02FC02EC02DC02CC02BC06C
:100020002AC029C028C027C026C025C024C023C09C
:1000300022C021C06364696E6F70737578585B006D
:1000400011241FBECFEFD4E0DEBFCDBF12E0A0E091
:10005000B1E0E4E6F5E102C005900D92A231B107EE
:10006000D9F722E0A2E1B2E001C01D92A831B207A7
:10007000E1F702D075CAC4CFCF93DF93CDB7DEB717
:100080002E970FB6F894DEBF0FBECDBF9AD06ED0BC
:1000900080E090E0AAEFB4E489839A83AB83BC83C9
:1000A00020E030E04AE753E469817A818B819C81CA
:1000B0001CD3DC01CB018D839E83AF83B88720E006
:1000C00030E040E85FE36D817E818F8198858CD23E
:1000D00088232CF481E090E09A8789873BC020E058
:1000E0003FEF4FE757E46D817E818F819885F9D28C
:1000F00018163CF520E030E040E251E469817A8155
:100100008B819C81F2D2DC01CB01BC01CD0170D28C
:10011000DC01CB019A8789870FC089E190E09C8739
:100120008B878B859C850197F1F79C878B878985C9
:100130009A8501979A87898789859A85009769F7B3
:1001400013C06D817E818F81988552D2DC01CB01F5
:100150009A87898789859A859E878D878D859E85D3
:100160000197F1F79E878D8761D0FECFCF93DF9304
:10017000CDB7DEB785EC90E0FC01108284EC90E016
:1001800024EDFC01208380EC90E022E0FC01208340
:1001900082EC90E02EE0FC01208381EC90E028E1ED
:1001A000FC01208380E091E090931302809312027F
:1001B00080E091E09093150280931402DF91CF913B
:1001C0000895CF93DF931F92CDB7DEB781E090E023
:1001D0001BD889838981882319F08981813011F5A1
:1001E0008981882379F480E090E00ED8898386E6BF
:1001F00090E026E630E0F90130812981230FFC01EF
:10020000208310C080E090E0FFD7898386E690E0ED
:1002100026E630E0F90130812981F32FF21B2F2FE0
:10022000FC0120830F90DF91CF910895CF93DF934E
:10023000CDB7DEB768970FB6F894DEBF0FBECDBF5F
:1002400029D32AE030E0B901A8D19A83898380912B
:100250001402909115029C838B83809112029091DD
:1002600013029E838D838B819C819C0148E250E028
:1002700061E070E082E191E03AD38B819C819C0146
:1002800040E350E061E070E08BE391E030D389819E
:100290009A8101969E8B8D8B8A818F9389818F9312
:1002A0008CE691E0892F8F938CE691E08F938C817F
:1002B0008F938B818F93FDD20F900F900F900F90A3
:1002C0000F900F901FC18B819C819C0141E150E0F8
:1002D00061E070E08EE791E00AD3CE014596292FC8
:1002E0002F938F9380E991E0892F8F9380E991E09C
:1002F0008F938E818F938D818F93EAD20F900F9081
:100300000F900F900F900F908D899E89292F2F931A
:100310008F9383E991E0892F8F9383E991E08F9305
:100320008C818F938B818F93C4D20F900F900F90FD
:100330000F900F900F9086C08B819C819C0147E1AC
:1003400050E061E070E085EA91E0D1D280E090E099
:10035000AAEFB4E48F839887A987BA8720E030E0BA
:100360004AE753E46F81788589859A85BED1DC019F
:10037000CB018B879C87AD87BE8720E030E040E8CB
:100380005FE36B857C858D859E852ED188232CF43B
:1003900081E090E0988B8F873BC020E03FEF4FE7F4
:1003A00057E46B857C858D859E859BD118163CF521
:1003B00020E030E040E251E46F81788589859A85BC
:1003C00094D1DC01CB01BC01CD0112D1DC01CB0108
:1003D000988B8F870FC089E190E09A8B898B8989F0
:1003E0009A890197F1F79A8B898B8F859889019764
:1003F000988B8F878F859889009769F713C06B85D5
:100400007C858D859E85F4D0DC01CB01988B8F8710
:100410008F8598899C8B8B8B8B899C890197F1F7B1
:100420009C8B8B8B8DEB91E0892F8F938DEB91E0E3
:100430008F938E818F938D818F934AD20F900F90DF
:100440000F900F90CE014596292F2F938F9380E91F
:1004500091E0892F8F9380E991E08F938E818F9324
:100460008D818F9335D20F900F900F900F900F903A
:100470000F908130910509F05FCF8D899E89292FDA
:100480002F938F9383E991E0892F8F9383E991E0F4
:100490008F938C818F938B818F930BD20F900F90C2
:1004A0000F900F900F900F902D893E8989819A812E
:1004B000281739075CF48B819C819C0145E150E051
:1004C00061E070E081EC91E012D21CC02D893E8980
:1004D00089819A81821793075CF48B819C819C01AE
:1004E00046E150E061E070E087ED91E000D20AC0A3
:1004F0008B819C819C0143E250E061E070E08EEED4
:1005000091E0F5D12D893E8989819A812817390793
:1005100009F0D9CE68960FB6F894DEBF0FBECDBFF6
:10052000DF91CF910895CF93DF9300D01F92CDB785
:10053000DEB789837B836A83000080EC90E0FC0156
:100540008081882F90E0807299270097B1F386EC24
:1005500090E02981FC01208380E090E00F900F90D3
:100560000F90DF91CF910895CF93DF9300D0CDB757
:10057000DEB79A838983000080EC90E0FC018081E3
:100580008823D4F786EC90E0FC018081882F90E0EE
:100590000F900F90DF91CF91089597FB072E16F4DF
:1005A000009406D077FD08D00BD007FC05D03EF4B0
:1005B000909581959F4F0895709561957F4F08950F
:1005C000AA1BBB1B51E107C0AA1FBB1FA617B70779
:1005D00010F0A61BB70B881F991F5A95A9F7809595
:1005E0009095BC01CD0108952FD008F481E00895C5
:1005F00057D088F09F5790F0B92F9927B751A0F0A6
:10060000D1F0660F771F881F991F1AF0BA95C9F7A6
:1006100012C0B13081F05ED0B1E008955BC0672FA9
:10062000782F8827B85F39F0B93FCCF38695779556
:100630006795B395D9F73EF490958095709561953F
:100640007F4F8F4F9F4F0895990F0008550FAA0BAA
:10065000E0E8FEEF16161706E807F907C0F01216D5
:100660001306E407F50798F0621B730B840B950BD8
:1006700039F40A2661F0232B242B252B21F408952D
:100680000A2609F4A140A6958FEF811D811D0895CA
:1006900057FD9058440F551F59F05F3F71F0479533
:1006A000880F97FB991F61F09F3F79F08795089518
:1006B000121613061406551FF2CF4695F1DF08C037
:1006C000161617061806991FF1CF86957105610554
:1006D00008940895E894BB2766277727CB0197F9FC
:1006E0000895B2DF08F48FEF08950BD078C069D079
:1006F00028F06ED018F0952309F05AC05FC011247D
:10070000EACFC6DFA0F3959FD1F3950F50E0551FB8
:10071000629FF001729FBB27F00DB11D639FAA2756
:10072000F00DB11DAA1F649F6627B00DA11D661FA5
:10073000829F2227B00DA11D621F739FB00DA11DC6
:10074000621F839FA00D611D221F749F3327A00D80
:10075000611D231F849F600D211D822F762F6A2F1C
:1007600011249F5750408AF0E1F088234AF0EE0FA1
:10077000FF1FBB1F661F771F881F91505040A9F7AE
:100780009E3F510570F014C0A6CF5F3FECF3983E3A
:10079000DCF3869577956795B795F795E7959F5F15
:1007A000C1F7FE2B880F911D9695879597F90895AF
:1007B00097F99F6780E870E060E008959FEF80EC14
:1007C000089500240A9416161706180609060895B7
:1007D00000240A9412161306140605060895092E1D
:1007E0000394000C11F4882352F0BB0F40F4BF2B8C
:1007F00011F460FF04C06F5F7F4F8F4F9F4F0895CC
:100800008F929F92AF92BF92CF92DF92EF92FF9220
:10081000CF93DF93EC01688179818A819B81611597
:1008200071058105910521F464E279ED8BE597E08E
:100830002DE133EF41E050E002D649015A019B011E
:10084000AC01A7EAB1E417D66B017C01ACEEB4EFC2
:10085000A50194011CD6C60ED71EE81EF91EF7FE90
:1008600006C081E0C81AD108E10880E8F80AC88209
:10087000D982EA82FB82C6019F77DF91CF91FF90F8
:10088000EF90DF90CF90BF90AF909F908F900895A2
:10089000B7DF08958EE091E0B3DF0895A0E0B0E007
:1008A00080930E0190930F01A0931001B09311015A
:1008B0000895A0E0B0E0EEE5F4E0FDC5AE01475FCD
:1008C0005F4F6F8178858D819E8143D0E2E00FC6B6
:1008D000A0E0B0E0EDE6F4E0EEC5AE01475F5F4FAB
:1008E0006F8178858D819E8166D3E2E000C6A0E0AD
:1008F000B0E0ECE7F4E0D5C56B014A017901D9011C
:1009000013962C9121FF1DC0C0E0D0E0C815D90579
:10091000D9F08C015C01AC0CBD1CC8010A151B058B
:1009200071F00F5F1F4FD7011896ED91FC91199749
:10093000B701DC018C910995892B79F305C02196CB
:10094000E5CF80E090E001C0CE01CDB7DEB7ECE0AE
:10095000C4C5ACE0B0E0EEEAF4E09DC57C016B01FB
:100960008A01FC0117821682838181FFB0C1CE010A
:1009700001964C01F7019381F60193FD859193FF58
:1009800081916F01882309F49EC1853239F493FD6A
:10099000859193FF81916F01853221F4B70190E039
:1009A000A2D4E8CF512C312C20E02032A0F48B329D
:1009B00069F030F4803259F0833269F420612CC040
:1009C0008D3239F0803339F4216026C022602460F2
:1009D00023C0286021C027FD27C030ED380F3A30F2
:1009E00078F426FF06C0FAE05F9E300D1124532EE6
:1009F00013C08AE0389E300D1124332E20620CC0C3
:100A00008E3221F426FD5FC1206406C08C3611F4BD
:100A1000206802C0883641F4F60193FD859193FF6A
:100A200081916F018111C1CF982F9F7D9554933093
:100A300028F40C5F1F4FFFE3F9830DC0833631F0BC
:100A4000833771F0833509F057C021C0F8018081E8
:100A500089830E5F1F4F44244394512C540114C0CA
:100A60003801F2E06F0E711CF801A080B18026FF02
:100A700003C0652D70E002C06FEF7FEFC5012C87CA
:100A8000E9D32C0183012C852F77222E16C0380143
:100A9000F2E06F0E711CF801A080B18026FF03C048
:100AA000652D70E002C06FEF7FEFC5012C87C7D3C3
:100AB0002C012C852068222E830123FC19C0832D54
:100AC00090E048165906A0F4B70180E290E00BD4FC
:100AD0003A94F5CFF50127FC859127FE81915F01BE
:100AE000B70190E000D431103A94F1E04F1A510868
:100AF0004114510479F7DEC0843611F0893631F59E
:100B0000F80127FF07C060817181828193810C5FAA
:100B10001F4F08C060817181882777FD8095982FCD
:100B20000E5F1F4F2F76B22E97FF09C090958095CC
:100B3000709561957F4F8F4F9F4F2068B22E2AE0AE
:100B400030E0A4011BD4A82EA81843C0853729F48F
:100B50002F7EB22E2AE030E025C0F22FF97FBF2E83
:100B60008F36C1F018F4883579F0ADC0803719F0B0
:100B7000883721F0A8C02F2F2061B22EB4FE0DC0FF
:100B80008B2D8460B82E09C024FF0AC09F2F966069
:100B9000B92E06C028E030E005C020E130E002C0F8
:100BA00020E132E0F801B7FE07C0608171818281E7
:100BB00093810C5F1F4F06C06081718180E090E0DF
:100BC0000E5F1F4FA401DAD3A82EA818FB2DFF77C4
:100BD000BF2EB6FE0BC02B2D2E7FA51450F4B4FEF5
:100BE0000AC0B2FC08C02B2D2E7E05C07A2C2B2DFE
:100BF00003C07A2C01C0752C24FF0DC0FE01EA0D44
:100C0000F11D8081803311F4297E09C022FF06C0C6
:100C10007394739404C0822F867809F0739423FD33
:100C200012C020FF06C05A2C731418F4530C571826
:100C3000732C731460F4B70180E290E02C8753D3D7
:100C400073942C85F6CF731410F4371801C0312C2F
:100C500024FF11C0B70180E390E02C8744D32C859A
:100C600022FF16C021FF03C088E590E002C088E79C
:100C700090E0B7010CC0822F867851F021FD02C0B0
:100C800080E201C08BE227FD8DE2B70190E02BD31B
:100C9000A51430F4B70180E390E025D35A94F8CF3F
:100CA000AA94F401EA0DF11D8081B70190E01BD3F5
:100CB000A110F6CF332009F45DCEB70180E290E0B9
:100CC00012D33A94F7CFF7018681978102C08FEF54
:100CD0009FEF2C96E2E1FBC320FD09C0FC0123FD40
:100CE00005C022FF02C0738362835183408308954D
:100CF00044FD10C046FD10C0DB01FC01AA0FBB1F64
:100D0000EE1FFF1F1094D1F76A0F7B1F8E1F9F1FCE
:100D100031E003C033E001C034E0660F771F881F65
:100D2000991F3150D1F7620F711D811D911D0895DA
:100D30000F931F93CF93DF938C01C80196D2EC01E0
:100D400097FD06C069D2892BC1F7B801CE01FDD24B
:100D5000CE01DF91CF911F910F9108958F929F92B5
:100D6000AF92CF92DF92EF92FF920F931F93CF93A8
:100D7000DF93EC01A62E4A01022F77D2AC01552752
:100D80004B32510521F04D32510549F40068AA94C7
:100D900011F480E060C0CE0168D297FDFACF102F29
:100DA0001D7F302F3073F1F48033E1F4FF24FA9487
:100DB000FA0C09F43DC0CE0158D297FD39C0382F46
:100DC0003F7D383549F41264AA94AA9489F1CE0182
:100DD0004CD297FF07C02CC006FF02C0126001C0B2
:100DE0001261AF2CC12CD12C760120ED280F2830B8
:100DF00078F014FF03C0BE01A8D217C02A3040F01B
:100E000016FFF9CF2F7D3FEE320F3630A0F7275077
:100E1000412FC701B6016CDF6B017C011260AA94FF
:100E200051F0CE0122D297FFE0CF11FD04C0B1CF27
:100E3000C12CD12C760117FF08C0F094E094D09417
:100E4000C094C11CD11CE11CF11C212FB701A601CB
:100E5000C40142DF81E0DF91CF911F910F91FF909C
:100E6000EF90DF90CF90AF909F908F900895A1E288
:100E7000B0E0ECE3F7E014C35C017A018E010F5F90
:100E80001F4F680180E2D8011D928A95E9F7F501AC
:100E9000738040E050E0812CB0E0912C81E090E044
:100EA000F90173FCA59173FEA1918F017A2F9F0127
:100EB000A11103C080E090E07BC0AE3519F441156C
:100EC000510559F1E92DF0E0E417F5073CF4AD3593
:100ED00069F1AD3219F4BB2319F103C0B11101C09E
:100EE0008A2EE72FE695E695E69586010E0F111DF1
:100EF000F801A72FA7708C0102C0000F111FAA953F
:100F0000E2F7D801B081BA2BB083781559F0781583
:100F100010F47F5FE6CF7150E4CF9924939403C01F
:100F2000B1E001C0B0E04F5F5F4FBACFBB2319F013
:100F30008E8180628E83911003C09924939415C092
:100F4000F601CE018196208120952193E817F907BB
:100F5000D1F7F3CFE114F10429F0D7018C93F70115
:100F600031967F016150F1F0912CC50169A37DD1CB
:100F700069A197FD15C0282F269526952695F6017F
:100F8000E20FF11D208130E0AC014770552702C00F
:100F9000359527954A95E2F720FDDCCFB501D5D1EF
:100FA000911088CFE114F10411F0D7011C92C8010F
:100FB000A196EDE091C24F925F927F928F929F92A5
:100FC000AF92BF92CF92DF92EF92FF920F931F9357
:100FD000CF93DF931F92CDB7DEB78C012B017A013F
:100FE000FC0117821682A12CF801D380F201D3FCF8
:100FF0008591D3FE8191382F2F01882309F4EEC00B
:1010000090E0398309D13981892B19F0C80190DE2C
:10101000EBCF353241F4F201D3FC3591D3FE31915F
:101020002F01353259F4C80139831FD1398197FD19
:10103000D3C03817C9F2B80188D1D0C03A3241F4D0
:10104000D3FC3591D3FE31912F01BB24B39401C061
:10105000B12C712C20ED230F2A3088F4FB2DF26087
:10106000BF2E672D70E080E090E040E241DE762EFA
:10107000F201D3FC3591D3FE31912F01EBCFB1FEBC
:1010800003C0711003C0AAC077247A94383619F0CF
:101090003C3661F014C0F201D3FC3591D3FE31919E
:1010A0002F01383661F4FB2DF860BF2E8B2D846044
:1010B000B82EF201D3FC3591D3FE31912F013323A9
:1010C00009F48CC0632F70E084E390E03983ACD0E6
:1010D0003981892B09F482C0B0FC07C0F701C080B8
:1010E000D180C70102967C0102C0C12CD12C3E36B2
:1010F00049F4F8014681578160E070E02B2DC6016C
:10110000EBDD72CF333699F4B1FC02C077247394CF
:10111000C801ABD097FD60C0C114D10429F0F6011D
:101120008083C60101966C017A9491F751C03B35DA
:1011300051F49201A601672DC80199DE2C01009798
:1011400009F046C040C0C8013983F2DD398197FDFE
:1011500043C03F3651F128F4343619F1393661F184
:1011600028C0333769F03537E1F023C0C114D1040A
:1011700029F0F6018082C60101966C017A9459F03B
:10118000C80173D04C0197FD06C046D0892B71F37E
:10119000B801C401DAD0C114D104D1F0F601108233
:1011A00017C0FB2DF062BF2E07C08B2D8061B82EBB
:1011B00003C09B2D9064B92E2B2DA601672DC8016D
:1011C000CDDD811105C0F8018381807329F406C04B
:1011D000B0FC0ACFA39408CFAA2019F08A2D90E082
:1011E00002C08FEF9FEF0F90DF91CF911F910F9172
:1011F000FF90EF90DF90CF90BF90AF909F908F9037
:101200007F905F904F900895F999FECF92BD81BD78
:10121000F89A992780B5089591110EC1803219F07E
:1012200089508550D0F70895FC010590061621F0ED
:101230000020D9F7C00108953197CF010895FC012E
:101240000590615070400110D8F7809590958E0FF1
:101250009F1F0895FC016150704001900110D8F764
:10126000809590958E0F9F1F0895CF93DF93EC018B
:101270002B8120FF33C026FF0AC02F7B2B838E815A
:101280009F8101969F838E838A8190E029C022FFEF
:101290000FC0E881F9818081992787FD909500979B
:1012A00019F420622B831AC03196F983E8830EC0AB
:1012B000EA85FB85099597FF09C02B81019611F4FA
:1012C00080E101C080E2822B8B8308C02E813F81A8
:1012D0002F5F3F4F3F832E83992702C08FEF9FEFF1
:1012E000DF91CF9108950F931F93CF93DF93182F22
:1012F000092FEB018B8181FD03C08FEF9FEF20C091
:1013000082FF10C04E815F812C813D8142175307BF
:101310007CF4E881F9819F012F5F3F4F3983288357
:10132000108306C0E885F985812F0995892B29F757
:101330002E813F812F5F3F4F3F832E83812F902F40
:10134000DF91CF911F910F910895FB01238120FF21
:1013500012C026FD10C08F3F3FEF930761F08283DC
:101360002F7D2064238326813781215031093783E3
:101370002683992708958FEF9FEF0895FA01AA27F2
:10138000283051F1203181F1E8946F936E7F6E5FC8
:101390007F4F8F4F9F4FAF4FB1E03ED0B4E03CD076
:1013A000670F781F891F9A1FA11D680F791F8A1F59
:1013B000911DA11D6A0F711D811D911DA11D20D0C0
:1013C00009F468943F912AE0269F11243019305D7A
:1013D0003193DEF6CF010895462F4770405D41936B
:1013E000B3E00FD0C9F7F6CF462F4F70405D4A33B8
:1013F00018F0495D31FD4052419302D0A9F7EACF80
:10140000B4E0A6959795879577956795BA95C9F7AE
:1014100000976105710508959B01AC010A2E0694A1
:101420005795479537952795BA95C9F7620F731F5A
:10143000841F951FA01D0895992788270895052EBC
:1014400097FB16F400940FD057FD05D05BD007FC36
:1014500002D046F408C050954095309521953F4FF5
:101460004F4F5F4F089590958095709561957F4F90
:101470008F4F9F4F089568D0A59F900DB49F900DFA
:10148000A49F800D911D11240895B7FFF4CFF3DFC1
:10149000821B930B08952F923F924F925F926F920F
:1014A0007F928F929F92AF92BF92CF92DF92EF92F4
:1014B000FF920F931F93CF93DF93CDB7DEB7CA1B75
:1014C000DB0B0FB6F894DEBF0FBECDBF09942A88A0
:1014D000398848885F846E847D848C849B84AA8448
:1014E000B984C884DF80EE80FD800C811B81AA81D5
:1014F000B981CE0FD11D0FB6F894DEBF0FBECDBFA0
:10150000ED010895A1E21A2EAA1BBB1BFD010DC01F
:10151000AA1FBB1FEE1FFF1FA217B307E407F507A3
:1015200020F0A21BB30BE40BF50B661F771F881F7F
:10153000991F1A9469F760957095809590959B0115
:10154000AC01BD01CF010895A29FB001B39FC001BE
:10155000A39F01D0B29F700D811D1124911D08958C
:04156000F894FFCF2D
:1015640000000003000000009302B4020000010028
:10157400000057656C636F6D6520746F2074686537
:1015840020486967682D4C6F7720677565737369A8
:101594006E672067616D65200D0A00506C6561738C
:1015A4006520656E74657220696E74656765722066
:1015B40067756573736573206265747765656E20FE
:1015C4003020616E642031306B0D0A005468652050
:1015D400616E737765722069732025640A0047651C
:1015E4007474696E672067756573732E2E2E0A00F6
:1015F400256400596F75722067756573732069736C
:101604002025640A00454E54455220544845204E36
:10161400554D424552204D41534F4E0A00252A73E1
:1016240000546F77206C6F772C2074727920616777
:1016340061696E200D0A00546F6F20686967682C19
:101644002074727920616761696E200D0A00436F0E
:101654006E67726174756C6174696F6E7320796FF3
:101664007520676F74206974207269676874200D2F
:021674000A006A
:00000001FF
